S01500004865616C74684D6F6E69746F722E73726563D1
S113000030250020B1160000AD160000AD1600002A
S113001000000000000000000000000000000000DC
S1130020000000000000000000000000AD16000009
S11300300000000000000000AD160000AD16000036
S1130040AD160000AD160000AD160000AD160000A0
S1130050AD160000AD160000AD160000AD16000090
S1130060AD160000F90400000905000019050000A0
S1130070290500003905000049050000AD160000FF
S1130080AD160000AD160000AD160000AD16000060
S1130090AD1600000000000000000000AD160000D6
S11300A0AD160000AD160000AD160000AD16000040
S11300B00000000010B5064C2378002B07D1054B37
S11300C0002B02D0044800E000BF0123237010BDC0
S11300D068000020000000008C1B0000084B10B5D5
S11300E0002B03D00749084800E000BF0748036815
S11300F0002B00D110BD064B002BFBD09847F9E72D
S1130100000000006C0000208C1B00008C1B000011
S113011000000000F0B5DE4657464E464546E0B5C1
S113012087B08046049116001F000022002300219E
S11301308B463F2401202100009601975C460394DE
S11301404446059413E02024641A0500E540A846BB
S113015014E0009C019D121BAB415C464D462C43B0
S1130160A346039C45462C430394013925D32024FC
S113017064420C19E7D40500A540A84604008C404D
S1130180A14692185B4114001D00059E4F463E4057
S1130190B446049E47463E40B246664657463E43F2
S11301A003D00600264332002B00009C019D9D4293
S11301B0DBD8CED19442D8D8CBE7039B584619005C
S11301C007B03CBC90469946A246AB46F0BD10B57C
S11301D0490840230024814202D2180010BD1C00AB
S11301E0091A631C9BB28842F9D94023FF2CF4D826
S11301F014800023F1E70000F0B583B00F0016006F
S113020008AA117804004C434022BC4202D91000D1
S113021003B0F0BD002B14D1020008000021194CDA
S1130220A04701003A0000230020174CA0470022F9
S11302300123121A8B41120C1B041A433280002230
S1130240E5E70022012BF9D10A00002300210D4C1F
S1130250A04702000B0000920193380000210A4CD1
S1130260A047050080239B0140229842CFD8790FF4
S1130270F800009A019BA047EA00821AD2B2520306
S11302802A43DBE7491900001501000010B582B0CC
S113029004000E4B1B78002B07D0002905D10B4B13
S11302A05B78834210D01D200CE001A90C70132050
S11302B0074B98471320074B9847044B5C70012267
S11302C01A70002002B010BD0020FBE7840000205B
S11302D055150000C9140000404B984231D00AD98A
S11302E03F4B98424DD03F4B98425AD03E4B984298
S11302F037D0002070473D4B98420CD03C4B98427D
S1130300F7D1012917D000295DD0022915D003297E
S113031015D00020EEE7012907D0002951D0022989
S113032005D0032905D00020E4E73248E2E732484B
S1130330E0E73248DEE73248DCE73248DAE73248C1
S1130340D8E7012907D000293FD0022905D0032985
S113035005D00020CEE72D48CCE72D48CAE72D482C
S1130360C8E7012907D0002931D0022905D0032983
S113037005D00020BEE72848BCE72848BAE728484B
S1130380B8E7012907D0002923D0022905D0032981
S113039005D00020AEE72348ACE72348AAE723486A
S11303A0A8E7012907D0002915D0022905D003297F
S11303B005D000209EE71E489CE71E489AE71E4889
S11303C098E71E4896E7032094E71D4892E71D48E6
S11303D090E71D488EE71D488CE7C0460010004298
S11303E000180042001C00420014004200080042B1
S11303F0000C004203000500030006000300070090
S11304000300010003001E0003001F000300090095
S113041003000A0003000B00030011000300120094
S11304200300130003000D0003000E0003000F007F
S11304300300170003001800030019000300040060
S1130440030008000300100003000C000300160062
S113045030B587B00B4B6A4632CB32C232CB32C294
S1130460009B83420BD001239A0069465258824272
S113047006D00133062BF7D1002007B030BD00238E
S1130480D8B2FAE7EC1A000070470000F0B50A4B46
S11304901B78002B0CD1094F094E0A4D0024DE5164
S11304A05A1914600433182BF9D10122024B1A7023
S11304B08000024BC150F0BD86000020880000205F
S11304C089040000CC00002000B583B009236A46EB
S11304D0137001335370013393700133D3700133BC
S11304E0137101335371034B98476B46185603B08D
S11304F000BDC0465104000010B5024B1B6800202B
S1130500984710BD8800002010B5024B5B6801209D
S1130510984710BD8800002010B5024B9B6802204C
S1130520984710BD8800002010B5024BDB680320FB
S1130530984710BD8800002010B5024B1B690420A9
S1130540984710BD8800002010B5024B5B69052058
S1130550984710BD88000020F0B5DE4657464E4649
S11305604546E0B591B005000C001600296008006E
S1130570BA4B9847020023680520DB0706D511B063
S11305803CBC90469946A246AB46F0BD2368173062
S11305909B07F4D4B249086A971C0123BB40034368
S11305A00B620FA92D27F35D0B701432D3B20293A3
S11305B01800AC4B98470298AB4B9847F05D00216C
S11305C0AA4B9847F37A6B712423F35CAB71252310
S11305D0F35CEB71F37E2B72337F6B722B6898465E
S11305E018009E4B9847143000220E2306A98C460F
S11305F063441A80328A02928023DB019A4200D13A
S11306009AE00FD9C023DB01029A9A4200D18EE00E
S113061080231B029A4200D01BE10323069300238C
S1130620079308E080239B019A4200D011E1102334
S113063006930F3B079333680593F3689B467369EE
S11306400393337E04932623F35C9A467368994696
S1130650002B00D19CE080235B05994500D180E00C
S1130660737E002B02D0B37E424693730E2306AAF8
S1130670944663441B8842469381059B5A46134320
S1130680039A13434A461343029F1F43049B1B02CE
S11306901F4353465B071F432723F35C002B01D101
S11306A004331F43737E9B02327F52021343727FD3
S11306B0120213432422B25C520413432522B25C77
S11306C012041343B17AF27A114319433389FF2B8D
S11306D000D181E080225204174319432C23F35C98
S11306E0002B03D1624B9B789B0701D580231F43CA
S11306F02A68D369002BFCD1434659602A68D36920
S1130700002BFCD143461F600EAB80221A700022DE
S11307105A70DA709A70336B0A93736B0B93B36BE2
S11307200C93F36B02930D9300270AAE63E0082346
S11307300693073B07937EE733680593F3689B466C
S113074073690393337E04932623F35C9A46736898
S11307509946002B18D080235B05994501D00020D1
S113076025E02723F35C002B00D079E7336A1F00D0
S1130770C0B2404B984701000E2206AB9C4662442F
S113078038003D4B984712E0082306930023079353
S11307902723F35C002B0ED0069B0093079B0E22AD
S11307A006A98C466244B16A306A344FB8470028BF
S11307B000D0E4E654E7336A1F00C0B22D4B9847DB
S11307C00100069B0093079B0E2206A88446624400
S11307D038002A4FB847EAE7F37E002B00D17DE7C3
S11307E08023DB041F4379E72000254B984707E06B
S11307F00137042F0DD0F9B2BB0098590028F3D06B
S1130800431CF5D00EA90870000CC0B21D4B9847CC
S1130810EEE70023EB602B616B61AB61EB612B6254
S1130820AB626B620022EB85AB853033EA54013353
S1130830EA540133EA540133EA542868074B9847D1
S113084004001149114B9847A400114BE5500020B6
S113085095E61023069300230793ECE65104000069
S11308600004004055150000C91400008D0200006A
S11308700020004171150000CF010000F9010000C3
S1130880D90200004D160000950900008D040000F7
S1130890CC000020F8B506000C00150007680A4BD0
S11308A09847F38D9BB2002B03D0084B9847052043
S11308B0F8BDF585054B9847B46205223323F254FD
S11308C0323BBB750020F3E7410E0000810E0000AF
S11308D0F8B504000D00160007680F4B9847A38D68
S11308E09BB2002B03D00D4B98470520F8BDA6857D
S11308F00A4B9847656205223223E2542E3BBB75AE
S1130900237A002B01D02023BB75637A0020002BAF
S1130910ECD00823BB75E9E7410E0000810E00000E
S1130920931C9B00C31859603021012393401A0083
S1130930435C13434354704710B51723002A01D175
S1130940180010BDC4790533002CF9D0014B984729
S11309500300F5E79508000010B51723002A01D11C
S1130960180010BD84790533002CF9D0014B984749
S11309700300F5E7D1080000002903D0012905D0C0
S1130980172002E03223C05CC0B270473323C05C3E
S1130990C0B2FAE7F8B58000624BC5582C68E36929
S11309A0002BFCD1237EA67D1E403023EB5C31223C
S11309B0AF5C1F40F30722D5EB8D9BB2002B1CD0FC
S11309C0AA6A1378DBB2511CA962697901290ED095
S11309D09BB2DB05DB0D2385EB8D013B9BB2EB85E5
S11309E0002B0CD1013323750133A37507E0517833
S11309F009020B430232AA62EBE701232375B30712
S1130A0006D50223237500223133EA54FB071AD496
S1130A10730765D5AB8D9BB2002B5FD0638BDBB2C4
S1130A201A0714D43F221340002B34D09A0711D54F
S1130A301A223223EA54303B63837B0750D52800C3
S1130A406B6998474CE02800EB689847E0E7372249
S1130A501340E9E75A0705D51E223223EA542E3BF8
S1130A606383EAE7DA0705D513223223EA54313BDC
S1130A706383E2E7DA0605D542223223EA54223BB5
S1130A806383DAE720221A42D7D021323223EA5490
S1130A90123B6383D1E7238DDB05DB0DDAB2696A90
S1130AA00A706A6A511C69626979012910D0AB8D98
S1130AB0013B9BB2AB85002B12D10433237500227A
S1130AC02E33EA54BB070BD528002B69984707E05F
S1130AD01B0A53706B6A01336B62E8E704232375C6
S1130AE0F30604D5102323752376FB060ED4B30630
S1130AF004D52023237523763B070BD4330704D571
S1130B00082323752376BB0608D4F8BD2800EB69B7
S1130B109847ECE72800AB699847EFE72B6A280071
S1130B209847F2E7CC00002070B582B001AC0025F4
S1130B302570A570657021000820074EB047257008
S1130B40657021000920B0472570657021000A20D6
S1130B50B047012002B070BDE90E000010B5034B90
S1130B609847034B9847012010BDC046B9170000B1
S1130B70290B000010B50400037C002B05D083680A
S1130B80581CE168074B9847A1606368581CE168EA
S1130B90044B98476160A368591A4A424A41227437
S1130BA010BDC0463D19000070B505000C001420AE
S1130BB0044B98470560C46000234360836003745A
S1130BC070BDC046E519000010B503684268995429
S1130BD0014B984710BDC046750B0000027C0023F2
S1130BE0002A05D1436880681B1A58424341DBB28E
S1130BF01800704770B504000D000A4B9847002890
S1130C000DD12368A2689B5C2B7000232374A36816
S1130C10581CE168044B9847A160002070BD012076
S1130C204042FBE7DD0B00003D19000010B5064C07
S1130C302178064B1868064B984701222100054885
S1130C40054B984710BDC0461C0100201801002028
S1130C50C90B0000E40000205909000010B5064B40
S1130C6018680649064B9847431C04D001220349DF
S1130C700448054B984710BD24050020200500209A
S1130C80F50B0000E40000203909000030B591B0F4
S1130C908025AD0029003B483B4CA0473B4B1860E6
S1130CA029003B48A0473B4B18608023DB05009399
S1130CB000230193FF2269460A8100228B72CB72C2
S1130CC0012124206C4621540130215425316354E0
S1130CD0013163540A93053163540131635405931C
S1130CE02382E3762276227762761323A3766277D1
S1130CF0E1235B020893C4239B03039301235B4218
S1130D000C930D93244B0E93244B0F93244D254C9D
S1130D106A4625492800A0470028F9D1204D2C68AF
S1130D202000224B98471F2318401E3B8340204A33
S1130D3013602A68D369002BFCD123680222134371
S1130D402360174C00221B4920001B4DA847012299
S1130D501A492000A8473122A35C03210B43A35462
S1130D601348C32189004358154A1A4080231B02A3
S1130D7013434350012213492000134B984711B0E9
S1130D8030BDC04620030020A90B0000180100203C
S1130D90200100202405002003002A0003002B006A
S1130DA0E40000205905000000180042C9040000B6
S1130DB000E100E05D0C0000210900002D0C0000A2
S1130DC0FF00FFFF1C01002059090000F0B5C646D2
S1130DD000B505000024002812D0114E114F124B0B
S1130DE0984603E0295D3868C04701342800B047BD
S1130DF08442F7D301210D480D4B9847002802D0B7
S1130E0004BC9046F0BD0B4C064B186821000A4BFD
S1130E109847012221000548084B9847F0E7C0464F
S1130E20D91A000024050020C90B0000E4000020AA
S1130E307909000020050020F50B000039090000A5
S1130E400C4B1B68002B06D1EFF31083002B07D04B
S1130E500022094B1A70074A136801331360704764
S1130E6072B6BFF35F8F0022044B1A700132024B3B
S1130E701A70F0E7A0000020A40000200000002069
S1130E80084B1A68013A1A601B68002B09D1064BFB
S1130E901B78002B05D00122044B1A70BFF35F8F1F
S1130EA062B67047A0000020A400002000000020CB
S1130EB0F0B583B001AC012565700027A7702570DB
S1130EC021001720064EB04780221204054B9A6178
S1130ED02770657021003720B04703B0F0BDC046CD
S1130EE0E90E00000044004100B583B001AB80224C
S1130EF01A700A785A704A789A708A78DA701900E7
S1130F00014B984703B000BD4D16000010B50828EA
S1130F1003D880001C4B1B589F46002032E01B4B1B
S1130F2018692FE01A4B1B6A9B059B0F1948D84080
S1130F3028E0164B586925E0144B1B6800209B07DA
S1130F4020D513491022CB681A42FCD00F4B1A68E3
S1130F5024231340042B01D00F4813E000200F4B2F
S1130F6098470A4B9B681B041B0C58430AE0502308
S1130F70074AD35C00205B0704D5044BD86801E022
S1130F808020000210BDC046041B0000A800002001
S1130F900008004000127A00006CDC0271150000A9
S1130FA070B50C490B6A04788578407801221040AA
S1130FB080014026B34303432A40D2018020834367
S1130FC013430322224012020348034013430B62DB
S1130FD070BDC04600080040FFFCFFFFF0B5DE46D0
S1130FE057464E464546E0B50100264B9B469B8A34
S1130FF0457800784242424191468878CA789446BE
S11310000A7990464E7B0F7B8C7B8A681E494A6125
S113101001214A4692009146042293434A461343CF
S113102042460A40D2009046082293434246134364
S113103062460A40120194461022934362461343C7
S1131040084040012022934303430F40BF01402046
S113105083433B430E40F6014030834333437938A6
S113106005402D02094803402B4321400903084849
S113107003400B435A4693823CBC90469946A24691
S1131080AB46F0BD00080040A8000020FFF8FFFFB9
S1131090FFEFFFFF10B5037A9B061B0C42899205F4
S11310A0920D134318494B608379C27913434288E4
S11310B08488224313434278D20113430B6003789C
S11310C0042B11D0202B0ED1037B9B06028A1343E1
S11310D0C28912040D490A4013430B4A93601168F4
S11310E00B4B0B43136010BD037B9B06028A134317
S11310F0C289120405490A401343034A93601368E2
S113110004210B431360EEE7A80000200000FF0356
S113111024040000082803D88000254B1B589F4650
S1131120172044E0234A136A02210B431362002070
S11311303DE0204A936902210B439361002036E08D
S11311401C4A138A02210B43138200202FE0194A00
S1131150938A02210B439382002028E016490B68EE
S1131160022213430B60134B9A8419000E32CB688E
S11311701A42FCD0104A91680E4BD96252689A62A6
S113118000229A8419001032CB681A42FCD00A4B10
S11311901B689BB2074A9384002008E00549442257
S11311A08B5C022003438B54002000E00020704736
S11311B0281B000000080040A8000020F0B58FB0F4
S11311C0C222D200474B9A60474A53681E218B4380
S11311D01A390B435360022201AB1A700024434DA9
S11311E0E0B201A9A8470134252CF9D10AA80023AB
S11311F003708370802212028260C3700122027124
S113120003738373023242704373394B984705204A
S1131210384B984733490222CB681A42FCD0314AF2
S1131220938A80210B43938205AB002100225980CD
S113123099809A71DA713F3159813B3919705A702A
S11312402D4B1B689B0E3F2B4AD005A803722B4BDA
S11312500382072303733833C381294B984704A8B7
S113126000254570012686700570264B9847062098
S1131270204FB847244B984701AC029665702572FD
S113128065720523237021000120204B984701201B
S11312901F4B9847267021000020144B98470020CC
S11312A01C4B98470720B8470E49D022CB681340FF
S11312B0D02BFBD1184A0023137253729372D3724A
S11312C001A901224A604B700B724B7207330B70F9
S11312D000200E4B984700200D4B98470FB0F0BDEF
S11312E0203BB2E7000800400040004155150000D3
S11312F0DD0F00001511000024608000B905000016
S113130095100000A10F00001D1300004113000000
S1131310F9130000C914000000040040064A936950
S113132008210B4393610122044B1A7019000B78B6
S11313301342FCD17047C04600040040000C00403A
S113134070B5060004000D782D0205434B78002B80
S113135002D08023DB021D434B7A002B02D0802372
S11313601B031D434868012810D9431E184234D179
S1131370022830D90223002201325B009842FBD8B4
S113138012023243140080235B031D430B7A002BAB
S113139002D080239B031D43134A53785BB2002B76
S11313A0FBDB124B9847124B1E700F4A53785BB20B
S11313B0002BFBDB0C4B9C601A0053785BB2002BB8
S11313C0FBDB094A5368802149020B401D435560E9
S11313D0084B984770BD0022D2E7040234438023AF
S11313E09B021D43D2E7C046000C0040410E0000A2
S11313F0080C0040810E000010B504000B4A53781D
S11314005BB2002BFBDB0A4B98470A4B1C70074A64
S113141053785BB2002BFBDB044A516880235B02E8
S11314200B435360044B984710BDC046000C00406A
S1131430410E0000040C0040810E000070B5040051
S11314401A4A53785BB2002BFBDB194B9847194BB4
S11314501C70164A53785BB2002BFBDB134E70688A
S1131460C004C00E144B98470500124B1C707668DC
S1131470F602F60F114B1C700C4A53785BB2002B2A
S1131480FBDB0A4B9C682402240C0D4B9847002E6E
S113149007D1012C07D9210028000A4B98470500E1
S11314A001E00134E540280070BDC046000C004056
S11314B0410E0000040C00400D0F0000080C004019
S11314C0810E00003118000010B50400064B984747
S11314D0064B1C70064A53888021C9010B43538074
S11314E0044B984710BDC046410E0000020C00405A
S11314F0000C0040810E000010B504000F4B98470B
S11315000F4B1C700F4A53881B05180F53880E4944
S11315100B40538053880D490B40538011008022A7
S1131520D2014B881342FCD106494A88030206487B
S1131530024013434B80064B984710BD410E0000F8
S1131540020C0040000C0040FFF0FFFFFFBFFFFF54
S1131550810E000010B50C7824020443024B984716
S1131560A4B2024B5C8010BDF9140000000C0040D2
S113157010B50400064B9847064B1C70064B5C885C
S11315802405240F054B98472000054B984710BDB0
S1131590410E0000020C0040000C0040810E0000CF
S11315A03D14000030B5D378002B35D11378802B4F
S11315B029D01B0680246402234354780225AC43BB
S11315C006D19478002C20D18024A40223434160C6
S11315D05478013C012C1CD90D042D0CA024E405E5
S11315E02C431C4384620D0CD02424062C431C433E
S11315F08462D478002C22D15B031CD59378012B10
S11316001ED0416117E00023D7E7C024E40223433E
S1131610DDE70D4C2340DFE741600C04240CA023DC
S1131620DB05234383620C0CD0231B062343836214
S1131630D378002B03D15378013B012B02D930BD61
S11316408161F8E78160FAE7FFFFFBFF10B50A004C
S1131650C1090023002904D14309DB0105498C4653
S113166063441F242040012181401800024B984705
S113167010BDC04600440041A5150000704700009D
S113168010B5054B9847054B9847054B9847054BB4
S11316909847054B984710BDBD110000B10E0000DE
S11316A07D1600007D1600007D160000FEE7000098
S11316B0F8B52A4A2A4B9A4211D01A00294B9A4269
S11316C00DD2294A03339B1A9B0801339B00002245
S11316D0234822498C58845004329A42FAD1234A2E
S11316E0234B9A420AD2D34321495B1803218B43EB
S11316F004339B18002102C29342FCD11D4AFF21EE
S11317001D4B8B439360FD3990235B001B4AD150E2
S11317101B4AD3780325AB4302242343D370D378E5
S11317200C27BB4308263343D370164B987B3022D7
S11317309043202210439873997BB94331439973A2
S11317409A7BAA4322439A730F4A536880210B431E
S113175053600E4B98470E4B9847FEE78C1B0000D6
S11317600000002068000020040000206800002021
S11317702C05002000ED00E0000000000070004196
S11317800050004100480041004000419D19000004
S1131790E51700000300064A1268002A04D0044A30
S11317A01068C318136070470249014A1160F6E7D4
S11317B0C00000203025002000B583B001A901231A
S11317C04B7000228A700B700B20044B98478022C8
S11317D01201034B9A61012003B000BDE90E000021
S11317E00044004110B50C4B98470C4B98470C4BE8
S11317F098470C480C4B98470C4B8024640080207D
S113180000048021090101E0986159611A6A2242A9
S1131810FAD058615961F9E7811600005D0B0000A8
S11318208D0C00004C1B0000CD0D00000044004155
S1131830002243088B4274D303098B425FD3030A0B
S11318408B4244D3030B8B4228D3030C8B420DD31E
S1131850FF22090212BA030C8B4202D312120902AC
S113186065D0030B8B4219D300E0090AC30B8B42EA
S113187001D3CB03C01A5241830B8B4201D38B0398
S1131880C01A5241430B8B4201D34B03C01A52413D
S1131890030B8B4201D30B03C01A5241C30A8B4280
S11318A001D3CB02C01A5241830A8B4201D38B026B
S11318B0C01A5241430A8B4201D34B02C01A52410F
S11318C0030A8B4201D30B02C01A5241CDD2C30981
S11318D08B4201D3CB01C01A524183098B4201D3FD
S11318E08B01C01A524143098B4201D34B01C01AE8
S11318F0524103098B4201D30B01C01A5241C30860
S11319008B4201D3CB00C01A524183088B4201D3CE
S11319108B00C01A524143088B4201D34B00C01ABA
S11319205241411A00D20146524110467047FFE726
S113193001B5002000F006F802BDC0460029F7D02A
S113194076E770477047C046F0B5CE464746150463
S11319502D0C2E0080B50704140C3F0C9946030C83
S11319607E435D43674363437F19340CE4199C460B
S1131970A54203D980235B029846C4444B46514395
S113198043433604360C250C24046544A419591821
S1131990491920000CBC90469946F0BD70B500264C
S11319A00C4D0D4C641BA410A64209D1002600F076
S11319B0DDF80A4D0A4C641BA410A64205D170BD83
S11319C0B300EB5898470136EEE7B300EB5898475D
S11319D00136F2E7781B0000781B0000781B00003A
S11319E07C1B000010B5034B0100186800F004F8DC
S11319F010BDC04604000020032370B5CD1C9D43D8
S1131A00083506000C2D1ED20C25A9421DD8300025
S1131A1000F069F8254A14682100002919D1244CE2
S1131A202368002B03D1300000F044F82060290023
S1131A30300000F03FF8431C2CD10C2330003360FD
S1131A4000F052F803E0002DDFDA0C2333600020AD
S1131A5070BD0B685B1B1AD40B2B03D90B60CC181D
S1131A60256003E08C420ED163681360300000F0FF
S1131A703BF8200007220B30231D9043C31AE7D004
S1131A805A42E250E4E74B6863600C00EEE70C0056
S1131A904968C2E70323C41C9C43A042E0D0211A36
S1131AA0300000F007F8431CDAD1C6E7C400002078
S1131AB0C8000020002370B5064C05000800236010
S1131AC0FFF768FE431C03D12368002B00D02B6072
S1131AD070BDC046280500200023C25C0133002AE3
S1131AE0FBD1581E70477047704700000008004241
S1131AF0000C004200100042001400420018004292
S1131B00001C00421E0F00001A0F00001A0F0000F4
S1131B10800F0000800F0000320F0000240F00002F
S1131B20380F00006E0F000040110000201100006B
S1131B3020110000AC110000321100004E11000011
S1131B40241100005C1100009C1100004553453530
S1131B503136202D20434C4920616E642044656257
S1131B607567204C6F676765720D0A00F8B5C0464B
S1131B70F8BC08BC9E467047DD000000F8B5C046BE
S10F1B80F8BC08BC9E467047B50000008D
S1131B8C010000000800002000000000000000001C
S1131B9C0000000000000000000000000000000035
S1131BAC0000000000000000000000000000000025
S1131BBC0000000000000000000000000000000015
S1131BCC0000000000000000000000000000000005
S1131BDC00000000000000000000000000000000F5
S10B1BEC0000000000000000ED
S90316B135
